:100000000C94E2020C942B030C942B030C942B0302
:100010000C942B030C942B030C942B030C942B03A8
:100020000C942B030C942B030C945B1D0C94321E2C
:100030000C946D140C942B030C942B030C942B0335
:100040000C942B030C942B030C942B030C942B0378
:100050000C942B030C94CE140C942B030C942B03B4
:100060000C942B030C942B030C942B030C942B0358
:100070000C942B030C942B030C942B030C942B0348
:100080000C942B030C942B030C942B030C942B0338
:100090000C942B030C942B033302380025022D0003
:1000A0000000000000002B000000000000002A00FB
:1000B0004A0052004B000000500000004F002E028A
:1000C0004D0051004E000000490000004C00280087
:1000D0000100010001000100070008000900010003
:1000E0000400050006000100240025002600000091
:1000F00021002200230001001E001F00200000003C
:10010000270001003700010001000100010001008B
:1001100001000100010001000100010001000100D7
:1001200001000100010000000100010001000100C8
:1001300001000100010000000100010001000100B8
:1001400001000100010001000100010001000100A7
:100150000100010001000100010001000100000098
:100160000100010001000100010001000100000088
:100170000100010001000100010001000100010077
:100180000100010001000100010001000100010067
:100190000100010001000000010001000100010058
:1001A0000100010001000000010001000100010048
:1001B0000100010001000100010001000100010037
:1001C0000100010001000100010001000100000028
:1001D0000100010001000100010001000100000018
:1001E0000100010001000100010001000100010007
:1001F00001000100010001000100010001000100F7
:1002000001000100010000000100010001000100E7
:1002100001000100010000000100010001000100D7
:1002200001000100010001000100010001000100C6
:1002300001000100010001000100010001000000B7
:1002400001000100010001000100010001000000A7
:100250000100010001000100010001000100010096
:100260000100010001000100010001000100010086
:100270000100010001000000010001000100010077
:100280000100010001000000010001000100010067
:100290000100010001000100010001000100010056
:1002A0000100010001000100010001000100000047
:1002B0000100010001000100010001000100000037
:1002C0000100010001000100010001000100010026
:1002D0000100010001000100010001000100010016
:1002E0000100010001000000010001000100010007
:1002F00001000100010000000100010001000100F7
:1003000001000100010001000100010001000100E5
:1003100001000100010001000100010001000000D6
:1003200001000100010001000100010001000000C6
:1003300001000100010001000100010001000100B5
:1003400001000100010001000100010001000100A5
:100350000100010001000000010001000100010096
:100360000100010001000000010001000100010086
:100370000100010001000100010001000100010075
:100380000100010001000100010001000100000066
:100390000100010001000100010001000100000056
:1003A0000100010001000100010001000100010045
:1003B0000100010001000100010001000100010035
:1003C0000100010001000000010001000100010026
:1003D0000100010001000000010001000100010016
:1003E0000100010001000100010001000100010005
:1003F00001000100010001000100010001000000F6
:1004000001000100010001000100010001000000E5
:10041000010001000100010012036B00650079007A
:1004200062006F006100720064000000160371003A
:100430006D006B006200750069006C00640065006F
:10044000720000000403090409026D00040100A009
:10045000FA09040000010301010009211101000152
:100460002240000705810308000A09040100010376
:10047000010200092111010001224D00070582033C
:1004800008000A090402000103000000092111010B
:1004900000012236000705830308000A090403004F
:1004A00001030000000921110100012239000705A4
:1004B00084032000011201100100000008EDFE601D
:1004C0006001000102000105010906A101050719EB
:1004D000E029E71500250195087501810205081935
:1004E0000129059505750191029501750391010595
:1004F00007190029F71500250195F875018102C03B
:1005000005010980A10185021601002603001A8158
:10051000002A8300751095018100C0050C0901A116
:10052000018503160100269C021A01002A9C02750F
:100530001095018100C005010902A1010901A10076
:100540000509190129051500250195057501810287
:100550009501750381010501093009311581257F58
:1005600095027508810609381581257F9501750862
:100570008106050C0A38021581257F9501750881D1
:1005800006C0C005010906A101050719E029E71504
:100590000025019508750181029501750881010505
:1005A00008190129059505750191029501750391B9
:1005B000010507190029FF150026FF00950675089B
:1005C0008100C00011241FBECFEFD0E2DEBFCDBF3F
:1005D00004B603FE27C080911D0290911E02A091D7
:1005E0001F02B09120028730904BA740B04BD1F44E
:1005F00010921D0210921E0210921F0210922002F1
:1006000014BE84B7877F84BF0FB6F894A8958091F5
:100610006000886180936000109260000FBEE0E08F
:10062000F8EF099511E0A0E0B1E0ECE4F3E400E0BC
:100630000BBF02C007900D92A233B107D9F722E099
:10064000A2E3B1E001C01D92AD31B207E1F70E9413
:10065000AE1A0C9478210C94000090E080E008958C
:100660000895089581E0089580FF03C0279A2F9888
:1006700008952798FCCF81E008950C9432030E94DE
:10068000C10C2FEF84E39CE0215080409040E1F7C3
:1006900000C000000C94F114EF92FF920F931F938F
:1006A000CF93DF938C01FC01E080F18080916301A6
:1006B000811140C082818823C1F1C7010E94441288
:1006C000C82F682FC7010E94EF11B7018C2F0E941D
:1006D0008404EC01B8010E943D03882309F44BC057
:1006E000B801CE010E948D06882309F444C0C531AB
:1006F000F0E7DF0720F5C23080E7D80708F04DC0EB
:10070000C115E0E7DE0791F1C130D047E1F181E0AA
:100710008093340180933501C801DF91CF911F91FF
:100720000F91FF90EF900C943B03C7010E941C12A5
:10073000C82FCBCFC7010E944412B701C8CFCC331A
:1007400080E7D80709F49BC0CD33D04701F7F80103
:100750008281882309F4BAC0109235010E949D1449
:10076000909333018093320180E296C0F801828138
:1007700081110E943F0380E0DF91CF911F910F9183
:10078000FF90EF900895F80182818823A1F3809172
:10079000DD0181608093DD01EECFF8018281882345
:1007A00009F4BACF0E94FF13811102C00E94E51321
:1007B0000E941C1490E090930F0280930E02FE01A1
:1007C000E350F04780910E028160E231F10538F488
:1007D000E658FE4D0C94252180910E028260809394
:1007E0000E0280910E020E9420140E94C10CC3CF01
:1007F00080910E028460F3CF80910E028860EFCF6B
:1008000080910E028061EBCF80910E028062E7CF73
:1008100080910E028064E3CF80910E028068DFCF6A
:1008200080910E028C60DBCF80910E028E7FD7CF3D
:1008300080910E028D7FD3CF80910E028B7FCFCF20
:1008400080910E02877FCBCF80910E028F7EC7CF23
:1008500080910E028F7DC3CF80910E028F7BBFCF20
:1008600080910E028F77BBCF80910E02837FB7CF2E
:1008700090910E02892F97FB87F98058B0CFF8012D
:100880008281882361F0109234010E949D1490931C
:1008900033018093320182E00E94260A6CCF80915E
:1008A000340181110FC080913201909133010E9477
:1008B000A914883C910530F486E20E94FB0886E288
:1008C0000E94D70982E00E942D0A55CF8091350100
:1008D00081110FC080913201909133010E94A914BF
:1008E000883C910530F487E20E94FB0887E20E9471
:1008F000D70980E2E8CF0C94DC060C94DE060C9459
:1009000034030C947F040895E72FF0E097E0899F6B
:10091000E00DF11D1124EE0FFF1FEE0FFF1FE60F7C
:10092000F11DEE0FFF1FE856FF4F8591949108953A
:10093000FC01EE0FFF1FE85EFB4F85919491089537
:100940000E9484040E9411069C01811540E49407D2
:1009500008F097C0211580E3380708F0FAC0203E60
:10096000310508F074C0203C310508F0E5C0283A94
:10097000310588F4253A310508F0E2C0213031050F
:1009800009F477C0C9010497813A910508F471C050
:1009900030E020E06EC0C901885A91094597C0F740
:1009A000283A310509F4FEC0293A310509F4FDC0A1
:1009B0002A3A310509F4FCC02B3A310509F4FBC091
:1009C0002C3A310509F4FAC02B3B310509F4F9C082
:1009D0002C3B310509F4F8C02D3A310509F4F7C074
:1009E000203B310509F4F6C02E3A310509F4F5C073
:1009F0002F3A310509F4F4C0213B310509F4F3C065
:100A0000223B310509F4F2C0233B310509F4F1C062
:100A1000243B310509F4F0C0253B310509F4EFC052
:100A2000263B310509F4EEC0273B310509F4EDC042
:100A3000283B310509F4ECC0293B310509F4EBC032
:100A40002A3B310509F4EAC020E034E412C0211544
:100A500090E2390780F42F3F310509F050F4283E29
:100A6000310538F0C901805F91093065409708F081
:100A70008FCFC9010895C9019F700E9498049C01FD
:100A8000F8CF8115944508F041C0211583E538075A
:100A900008F06AC0211592E5390738F5211541E5BE
:100AA000340708F05CC0211580E5380708F454C00D
:100AB000C90134E0969587953A95E1F78370422F06
:100AC00046954695437090E2499FA0011124582B0A
:100AD000822F837021E030E002C0220F331F8A95FD
:100AE000E2F7242B352B3C68C4CFC90183709927CA
:100AF00041E050E002C0440F551F8A95E2F7269569
:100B0000269580E2289F90011124EBCF211596E5D0
:100B1000390748F4922F882721153545C8F59C01DF
:100B2000246F306AA6CFC90190563F70811590415D
:100B300008F02ECF30629DCFC901805C91099DCF16
:100B4000253A310549F1263A310549F522E830E4E4
:100B500090CF3327306C8DCF3F70306A8ACF322FE1
:100B60002227216F306A85CFC9018370992741E020
:100B700050E002C0440F551F8A95E2F7269526954E
:100B800080E2289F90011124242B352B3A6871CFE5
:100B900088279F719C01CECF21E830E46ACF23E8FB
:100BA00030E467CF22EE34E464CF29EE34E461CF41
:100BB0002AEE34E45ECF25EB34E45BCF26EB34E45D
:100BC00058CF23EB34E455CF24EB34E452CF27EB5A
:100BD00034E44FCF2CEC34E44CCF2DEC34E449CF4B
:100BE00023E835E446CF2AE835E443CF22E935E46B
:100BF00040CF24E935E43DCF21E236E43ACF23E289
:100C000036E437CF24E236E434CF25E236E431CF80
:100C100026E236E42ECF27E236E42BCF2AE236E472
:100C200028CF803E910581F1C8F48133910509F404
:100C300062C048F48932910509F456C08A329105A0
:100C400009F460C0089589339105B9F0823891059F
:100C5000A1F08533910509F440C00895863E9105C1
:100C600061F138F4823E9105B1F0833E9105E1F0E7
:100C70000895873E910551F1089520910E02237049
:100C8000D9F080EE90E0089520910E0220FF14C06C
:100C900089E390E0089520910E0222FF0DC024FD0B
:100CA00009C083EE90E0089520910E0222FD31C02C
:100CB00024FF02C090E080E0089520910E0223FFFF
:100CC000FBCF24FDF7CF87EE90E0089520910E0230
:100CD00023FFEECF86EE90E0089520910E0225FFCF
:100CE000EBCF89E290E0089520910E0225FFE4CF3A
:100CF00085E390E0089520910E0226FFDDCF8AE281
:100D000090E0089520910E0226FFD6CF81E390E077
:100D1000089582EE90E0089508950F931F93CF9366
:100D20008C01FB018281811106C0C1E08C2FCF9123
:100D30001F910F910895C0914301C11125C0053144
:100D4000104799F70E948C0681E0809343010E942E
:100D50009D149093420180934101109236011092AC
:100D600038011092370110923A0110923901109215
:100D70003C0110923B0110923E0110923D011092F5
:100D8000400110923F01D2CF8091410190914201E8
:100D90000E94A914883C910540F680913601E82F05
:100DA000F0E0EE0FFF1FE95CFE4F118300838F5FC1
:100DB00080933601C0E0BACF0C9430030C94310319
:100DC00085B7806885BF85B7806885BFA7E1B1E03A
:100DD00061E070E08D91E82FE295EF70F0E041A1C5
:100DE0008F709B0101C0220F8A95EAF7922F909590
:100DF000942391A382A1822B82A381E0AE31B80714
:100E000049F7A3E1B1E061E070E08D91E82FE29550
:100E1000EF70F0E041A18F709B0101C0220F8A9515
:100E2000EAF7922F9095942391A382A1822B82A31B
:100E300081E0A731B80749F7EBE4F1E0A4E4B1E0C1
:100E400082E591E011921D928E179F07D9F70C94BD
:100E50007B044F925F926F927F928F929F92AF929C
:100E6000BF92CF92DF92EF92FF920F931F93CF9397
:100E7000DF9304E411E087E1C82E81E0D82E280139
:100E8000EE24E394F12CBB24B394D2019D902D0168
:100E90001E92E60189916E01E82FE295EF70F0E075
:100EA00091A18F70970101C0220F8A95EAF7892FCF
:100EB000822B81A382A1822E8094882182A3D0EAF2
:100EC000DA95F1F763E171E090E080E0EB01A99041
:100ED000BE014A2D42954F7050E0EA0168A07C9017
:100EE0005A2D5F70E70102C0CC0FDD1F5A95E2F763
:100EF000AE01462109F04FC04E2D082E01C0440F0F
:100F00000A94EAF747294C93019684309105F1F64B
:100F100081A1882181A382A1282B22A38C919816DC
:100F200041F0B09252010E949D149093540180931D
:100F30005301DBE44D16D1E05D0609F0A6CF8091A8
:100F400052018823A1F080915301909154010E9495
:100F5000A914069760F0EBE4F1E0D8018D918D01C2
:100F60008193B1E00B341B07C1F7109252010E942C
:100F70007D0481E0DF91CF911F910F91FF90EF9061
:100F8000DF90CF90BF90AF909F908F907F906F90A9
:100F90005F904F90089540E0B5CFE82FF0E0E55B1B
:100FA000FE4F80810895089590935A0180935901CE
:100FB0000895E0915901F0915A01309721F0019084
:100FC000F081E02D099480E00895E0915901F091BD
:100FD0005A01309721F00280F381E02D09940895A1
:100FE000E0915901F0915A01309721F00480F58188
:100FF000E02D099408952091570130915801281748
:10100000390771F09093580180935701E09159018D
:10101000F0915A01309721F00680F781E02D099474
:10102000089520915501309156012817390771F024
:101030009093560180935501E0915901F0915A0126
:10104000309721F00084F185E02D099408950895EA
:101050000C9427080E9494140E94E0060C945615E4
:10106000BF92CF92DF92EF92FF920F931F93CF9395
:10107000DF9300D000D00F92CDB7DEB70E942907D2
:101080008CE5C82E81E0D82E10E000E0E02E802F05
:101090000E94CD07B82EF601F1906F01F81609F401
:1010A0005BC08091DD0181FD0E94D30730E020E02C
:1010B000FB244F2D50E0922FBA01022E02C07595ED
:1010C00067950A94E2F760FF41C02983EA8221E034
:1010D00030E0790102C0EE0CFF1C9A95E2F72B2D4F
:1010E00030E02E213F2181E0232B09F480E08B8327
:1010F0000E949D148160782F9D838C8349815A8141
:101100006B818D810E94D208F801E45AFE4F8081E4
:101110008E2580830E9403180E94D90790915B015D
:10112000891789F10E94D90780935B010F900F9076
:101130000F900F900F90DF91CF911F910F91FF9023
:10114000EF90DF90CF90BF900C9481042F5F3F4FC2
:101150002430310509F0AFCF0F5F1F4F0730110565
:1011600009F094CF8FEF89838A831B820E949D149C
:101170008160782F9D838C8349815A816B818D8119
:101180000E94D208C7CF0F900F900F900F900F9032
:10119000DF91CF911F910F91FF90EF90DF90CF9053
:1011A000BF900895CF93DF93CDB7DEB72B970FB6DF
:1011B000F894DEBF0FBECDBF4F83588769877A870B
:1011C0008B871E8285E0FE013796DE011196019025
:1011D0000D928A95E1F749815A816B817C818D81DD
:1011E0009E812B960FB6F894DEBF0FBECDBFDF9168
:1011F000CF910C94490F882309F4D8C0823871F438
:101200000E94D90781FDD2C089E30E94EC120E949E
:10121000B61389E30E9429130C94B613833859F44A
:101220000E94D90780FDC2C083E50E94EC120E9493
:10123000B61383E5EFCF843859F40E94D90782FDB5
:10124000B5C087E40E94EC120E94B61387E4E2CF97
:101250009CEF980F913A18F40E94EC12DDCF90E2C7
:10126000980F983050F4877091E001C0990F8A95DB
:10127000EAF7892F0E946D13CFCF9BE5980F93302B
:1012800070F4853A31F0863A39F083E890E00C94B6
:10129000FB0781E890E0FBCF82E890E0F8CF98E58B
:1012A000980F953108F082C0883A09F440C0893A15
:1012B00009F440C08A3A09F440C08B3A09F440C0AE
:1012C0008C3A09F440C08B3B09F440C08C3B09F4D4
:1012D00040C08D3A09F440C0803B09F440C08E3ACA
:1012E00009F440C08F3A09F440C0813B09F440C082
:1012F000823B09F440C0833B09F440C0843B09F4BD
:1013000040C0853B09F440C0863B09F440C0873BA0
:1013100009F440C0883B09F440C0893B09F440C04F
:101320008A3B09F440C090E080E00C94110882EE02
:1013300090E0FBCF89EE90E0F8CF8AEE90E0F5CF19
:1013400085EB90E0F2CF86EB90E0EFCF83EB90E07F
:10135000ECCF84EB90E0E9CF87EB90E0E6CF8CEC2C
:1013600090E0E3CF8DEC90E0E0CF83E891E0DDCF3B
:101370008AE891E0DACF82E991E0D7CF84E991E081
:10138000D4CF81E292E0D1CF83E292E0CECF84E26B
:1013900092E0CBCF85E292E0C8CF86E292E0C5CF63
:1013A00087E292E0C2CF8AE292E0BFCF089588231D
:1013B00009F44BC0823871F40E94D90781FF45C0FF
:1013C00089E30E94EC120E94B61389E30E9429135C
:1013D0000C94B613833859F40E94D90780FF35C0A6
:1013E00083E50E94EC120E94B61383E5EFCF8438A8
:1013F00059F40E94D90782FF28C087E40E94EC12AA
:101400000E94B61387E4E2CF9CEF980F913AF0F276
:1014100090E2980F983050F4877091E001C0990FD6
:101420008A95EAF7892F0E947313D2CF9BE5980F14
:10143000933020F490E080E00C94FB07885A8531CB
:1014400020F490E080E00C9411080895882321F0A6
:101450000E946D130C94B6130895882321F00E9406
:1014600073130C94B61308958F929F92AF92BF920C
:10147000DF92EF92FF920F931F93CF93DF9300D0F1
:1014800000D00F92CDB7DEB77C016D837983FC016C
:10149000058102950F70128111110E948C130E9418
:1014A000E512D82E882371F01123A1F08D81805E82
:1014B000883080F082E00E94CF120E94E51291E015
:1014C000D82ED926E981E295EF70F0E0E457FE4D81
:1014D0000C942521D12CF6CF09810F70F981F07F72
:1014E00011F00295007F1123B1F0002361F08D818E
:1014F000805E883018F02D81211109C0802F0E9454
:101500006D130E94B6138D810E94FB0815C0802FB9
:101510000E947E13F6CF8D810E94D709002361F0CF
:101520008D81805E883018F03D81311129C0802F77
:101530000E9473130E94B613DD2009F4D3C10E94E8
:10154000C21280FDCFC1F70112820E94BC120E941C
:101550000711C7010E94830C0E94BC120F900F90CC
:101560000F900F900F90DF91CF911F910F91FF90EF
:10157000EF90DF90BF90AF909F908F900C942911C7
:10158000802F0E948413D6CF49814F70B42E598189
:10159000507F503219F0B29480EFB8228D818823A9
:1015A00069F0813029F1112369F1002359F0F70125
:1015B000858180FFA8CF8F70858304C0112361F0DF
:1015C000011104C08B2D0E94260AB6CF8B2D01304D
:1015D000D1F70E94A013B0CF011106C00E94A3133F
:1015E0008B2D0E942D0AA8CF013009F4A5CFF6CF8C
:1015F000112321F0063008F09FCFE4CF053008F02A
:101600009BCFEECF002361F38D810E94D70994CF49
:10161000898186958695837069F0813009F08CCF39
:101620008D8199819370111102C090E080E00E9439
:10163000110882CF8D8199819370111102C090E0C1
:1016400080E00E94FB0778CF8D81112329F00E9452
:1016500011170E94F81770CF0E947917FACF89816D
:10166000837009F05FC0111167CF2D8122952695F7
:101670002770220F220F8D818F7090E0B0E0A0E0E4
:101680004C015D01022E04C0880C991CAA1CBB1CD5
:101690000A94D2F7FD8160E070E0CB01F4FF0FC047
:1016A0006FE070E080E090E004C0660F771F881F55
:1016B000991F2A95D2F7609570958095909529810C
:1016C0002695269523702D832230B1F0233019F111
:1016D0009B01AC01282939294A295B2929833A83AE
:1016E0004B835C833D8169817A818B819C81313020
:1016F000B1F00E94941020CF9B01AC012829392918
:101700004A295B2929833A834B835C83CA01B90147
:101710000E94BE1011CF0E949410C501B4010E9416
:101720006A100ACF8695112311F089818170882370
:1017300009F402CF2D81229526952770220F220FC2
:101740008D818F7090E0B0E0A0E04C015D01022E31
:1017500004C0880C991CAA1CBB1C0A94D2F73D81BA
:1017600060E070E0CB0134FF0FC06FE070E080E01C
:1017700090E004C0660F771F881F991F2A95D2F743
:1017800060957095809590954981469546954370F2
:101790004D834230B1F0433019F19B01AC0128294F
:1017A00039294A295B2929833A834B835C833D810C
:1017B00069817A818B819C813130B1F00E949A11CC
:1017C000BBCE9B01AC01282939294A295B292983F1
:1017D0003A834B835C83CA01B9010E94C411ACCE29
:1017E0000E949A11C501B4010E947011A5CE3D81DD
:1017F000323F09F447C080F4303F79F1313FD9F1ED
:10180000832F805E8031D0F0112309F456C001117E
:101810007ACE89818F7133C04D81433FD1F1443FEE
:1018200099F7112309F43FC089818F7189830E9440
:10183000071163E089810E94C6127ECE5D815F70D0
:101840005D8389818F71112321F00E9407118D81A1
:10185000BACE0E9429118D81C4CE112341F00530EA
:1018600008F06ACE89818F710E944E1165CE0630D4
:1018700008F062CEF7CF89818F71112339F00E9471
:1018800007115ACE89818F711123C9F30E94291142
:1018900053CE112329F089818F710E94F2104CCE12
:1018A0000E94E81049CE81E00E94CF12023008F475
:1018B00043CE82E00E94CF123FCE0111A5CE898196
:1018C0008F71E4CF49814F706D81C7010E942D0354
:1018D0000E94E30F31CE49814F706D81C7010E9494
:1018E00083042ACE0F900F900F900F900F90DF91EE
:1018F000CF911F910F91FF90EF90DF90BF90AF902D
:101900009F908F9008950F931F93CF93DF93EC01D7
:101910008B819C81892B29F08881998189238F3F34
:1019200029F4DF91CF911F910F910895CE010E946C
:101930004C038823B1F3688179818A810E949212D5
:101940008C010E94EE110E945F10B801CE01DF9160
:10195000CF911F910F910C94340A0E948C130E9416
:101960009D130E945F130E94B6130E94E9180E9403
:10197000F81790E080E00E94FB0790E080E00C9474
:1019800011080E947B130C94AD0C0E948612282F24
:10199000892F82958F70903C80F48A30B0F4843027
:1019A00020F4823090F480E008958630E1F781E001
:1019B000203E88F0213FB9F70EC08C3011F08F30F7
:1019C00091F793FB882780F9089581E0203F39F053
:1019D00018F4203E40F70895243F29F7FCCF0895DE
:1019E000CF93DF9300D000D00F92CDB7DEB70F902A
:1019F0000F900F900F900F90DF91CF910895CF939C
:101A0000DF9300D000D000D0CDB7DEB726960FB65A
:101A1000F894DEBF0FBECDBFDF91CF9108951F9325
:101A2000CF93DF93E091640116E0809165018E13FE
:101A300004C0DF91CF911F910895CE2FD0E01E9F5B
:101A4000F0011124EA59FE4F408151816281738176
:101A5000848195810E94FF0CFE013196E770E5CFED
:101A60004091960150919701609198017091990170
:101A700080919A0190919B010C94FF0C1F93CF933E
:101A8000DF9380919B01807FC1F48091980188232E
:101A9000A1F080916401C0916501609196017091FF
:101AA00097014091990150919A01D62FD723DA01DD
:101AB000A095B09516E0C81304C0DF91CF911F9197
:101AC000089590E04115510511F0DF3F31F4019682
:101AD0008770F1CF2A0F3B1F17C0189FF001199F85
:101AE000F00D1124EA59FE4F21812713F0CF2081F8
:101AF0002613EDCF22812111EACF238134812417CF
:101B0000350740F3241B350B283C310500F72091A5
:101B10009B012F70206120939B0126E0289FF001FC
:101B2000299FF00D1124E559FE4F80818F7080614F
:101B3000808386E991E00E94830CDF91CF911F9111
:101B40000C940F0D9F92AF92BF92CF92DF92EF92C3
:101B5000FF920F931F93CF93DF93CDB7DEB72B97F1
:101B60000FB6F894DEBF0FBECDBF8C0185E0F80143
:101B7000DE01179601900D928A95E1F7D8014C91FC
:101B800011965C9111971296EC90129780919901A1
:101B900090919A01009709F46BC1209196013091C0
:101BA0009701632F62236F3F09F462C11396CD90B2
:101BB000DC9090909801992009F4F8C0C816D906D5
:101BC00008F43FC0F601E81BF90BCF01FF24F394A2
:101BD000883C910508F0F12C86E9A82E81E0B82E0A
:101BE00080919B01982F907FFF2009F4B7C091113D
:101BF00080C0FE2C35132AC0241328C0E11026C053
:101C00008F70806180939B010E94300DC5010E94FE
:101C1000830C80919B01D80115968C938F2D2B9668
:101C20000FB6F894DEBF0FBECDBFDF91CF911F91ED
:101C30000F91FF90EF90DF90CF90BF90AF909F906B
:101C40000895809590958C0D9D1DC0CFCD2829F0CD
:101C5000842F85238F3F09F019C180E0B82FB17020
:101C6000DB2EE09164012091650136E080FD1CC00F
:101C7000EE20A1F280919B01816080939B01F12C69
:101C8000CDCF8E2F90E03E9FF0011124EA59FE4FF8
:101C90006181651306C06081641303C062816E11A7
:101CA000E7CFFC013196E770E213EBCF4F83588703
:101CB0008F8198850E948612292F22952F7090324D
:101CC00060F0225F2F70223078F49F7051F0F8019D
:101CD0009581907F31F4D12C0AC09F7011F0882338
:101CE000D1F3805E8830B8F3C8010E94830CFD2CCC
:101CF00095CF351306C0241304C0D801EE2009F493
:101D00007BC04F8358878F8198850E94C50C88239C
:101D100009F4B8C0EE2009F4B5C080919B0180326F
:101D200070F020919601309197013A8329831B82AC
:101D3000DD82CC828E83CE0101960E94830C86E0E8
:101D4000F801A6E9B1E001900D928A95E1F70E94B1
:101D50003E0D0E94300DFF24F39460CF911113C00B
:101D60007C2DDB86CA866E2D8B850E94F00C86E961
:101D700091E00E94830C86E0F50111928A95E9F7C3
:101D80000E94300D4BCF3513BCCF2413BACFE110D6
:101D9000B8CFD80115968C93C8010E94830C86E0B9
:101DA000F50111928A95E9F7F92C38CFC816D906B2
:101DB00088F1B601681B790BCB01F12C883C9105A9
:101DC00008F047C0FE2CEE2009F45CC0351330C08B
:101DD00024132EC080919B0180FD21C0982F907FFD
:101DE000F1F0D80115968C931597903F39F0982F04
:101DF000907F905F8F70892B15968C93C8010E94FD
:101E0000830C86E0F801A6E9B1E001900D928A9575
:101E1000E1F7B6CF809590958C0D9D1DCECF86E0D5
:101E2000F801A6E9B1E001900D928A95E1F7F6CEAE
:101E30004F8358878F8198850E94C50C81117FCF71
:101E400080919B01816080939B01C8010E94830C5B
:101E5000E5CE7C2DDB86CA866E2D8B850E94F00C2C
:101E600086E0E6E9F1E0DF011D928A95E9F788CF87
:101E7000EE2041F04F8358878F8198850E94C50CD2
:101E800081115DCFC8010E94830C65CF81E08E2552
:101E9000E5CE1F93CF93DF93CDB7DEB72C970FB668
:101EA000F894DEBF0FBECDBF4F83588769877A870E
:101EB0008B879C87CE0107960E94A20D882369F02C
:101EC0008A859B85892B39F04F815885842F8523FE
:101ED0008F3F09F071C016E05FC086E0FE013796C3
:101EE000DE01119601900D928A95E1F78A859B8516
:101EF000892B89F388859F8189238F3F61F3209106
:101F0000650130E0C901019687709927409164010D
:101F10004817190671F40E94C10C109265011092C5
:101F2000640186E0E6E9F1E0DF011D928A95E9F7B8
:101F3000D2CF96E0929FD001939FB00D1124AA5961
:101F4000BE4FFE01319601900D929A95E1F7809374
:101F500065010E940F0DBFCF819FC00111248A59D6
:101F60009E4F0E94A20D8823E9F0E09164011E9F1C
:101F7000F0011124EA59FE4F408151816281738141
:101F8000848195810E94FF0C8091640190E001960C
:101F90008770992780936401809164019091650115
:101FA0008913DACF2C960FB6F894DEBF0FBECDBFE3
:101FB000DF91CF911F91089569857A858B859C85E6
:101FC0000E94FF0C88CFEF92FF920F931F93CF9345
:101FD000DF938C01892B89F0F12CEE24E394E80146
:101FE0002196F8018491843709F457C0A0F4823017
:101FF00009F43EC048F48130D1F0DF91CF911F91B8
:102000000F91FF90EF9008959CEF980F9037A8F7ED
:102010000E94FB080AC0853709F44CC09CE7980F62
:10202000903758F78F770E94D7098E0116C00E5F40
:102030001F4FFE01849190E2980F983060F48770F2
:10204000FE2D01C0FF0F8A95EAF78F2F0E948F1394
:102050000E94B61302C00E94FB088F2D815008F425
:10206000BECFEFE9FFE03197F1F700C00000F6CFF7
:102070000E5F1F4FFE01849190E2980F983050F44C
:102080008770FE2D01C0FF0F8A95EAF78F2F0E94FF
:102090009513DECF0E94D709E0CF0E5F1F4FFE01E0
:1020A000C491C150D0F28FE99FE00197F1F700C0D1
:1020B0000000F7CF0E5F1F4FFE01F490CECF0895C2
:1020C0006093B4017093B5018093B6019093B7010A
:1020D0000C94AD0CCF93DF9300D000D0CDB7DEB71A
:1020E00069837A838B839C838091B4019091B5013D
:1020F000A091B601B091B70129813A814B815C81F1
:10210000822B932BA42BB52B8093B4019093B50114
:10211000A093B601B093B7010F900F900F900F905E
:10212000DF91CF910C94AD0CCF93DF9300D000D012
:10213000CDB7DEB769837A838B839C838091B401AA
:102140009091B501A091B601B091B70129813A8172
:102150004B815C8182239323A423B5238093B40114
:102160009093B501A093B601B093B7010F900F9073
:102170000F900F90DF91CF910C94AD0CCF93DF9324
:1021800000D000D0CDB7DEB769837A838B839C8380
:102190008091B4019091B501A091B601B091B701C1
:1021A00029813A814B815C8182279327A427B52717
:1021B0008093B4019093B501A093B601B093B70199
:1021C0000F900F900F900F90DF91CF910C94AD0C6A
:1021D0001092B0011092B1011092B2011092B301AD
:1021E0000C94AD0C41E050E060E070E004C0440F9E
:1021F000551F661F771F8A95D2F74093B001509301
:10220000B1016093B2017093B3010C94AD0C282F0F
:1022100081E090E0A0E0B0E004C0880F991FAA1F01
:10222000BB1F2A95D2F74091B0015091B101609146
:10223000B2017091B301842B952BA62BB72B809301
:10224000B0019093B101A093B201B093B3010C948B
:10225000AD0C41E050E060E070E004C0440F551F59
:10226000661F771F8A95D2F74095509560957095B7
:102270008091B0019091B101A091B201B091B301F0
:1022800084239523A623B7238093B0019093B101B3
:10229000A093B201B093B3010C94AD0C282F81E050
:1022A00090E0A0E0B0E004C0880F991FAA1FBB1FF8
:1022B0002A95D2F74091B0015091B1016091B201DD
:1022C0007091B30184279527A627B7278093B00183
:1022D0009093B101A093B201B093B3010C94AD0CF3
:1022E000CF93DF9300D000D0CDB7DEB769837A8378
:1022F0008B839C838091B0019091B101A091B20138
:10230000B091B30129813A814B815C81822B932B5F
:10231000A42BB52B8093B0019093B101A093B2018F
:10232000B093B3010F900F900F900F90DF91CF916A
:102330000C94AD0CCF93DF9300D000D0CDB7DEB7B7
:1023400069837A838B839C838091B0019091B101E2
:10235000A091B201B091B30129813A814B815C8196
:1023600082239323A423B5238093B0019093B101DA
:10237000A093B201B093B3010F900F900F900F9004
:10238000DF91CF910C94AD0CCF93DF9300D000D0B0
:10239000CDB7DEB769837A838B839C838091B0014C
:1023A0009091B101A091B201B091B30129813A811C
:1023B0004B815C8182279327A427B5278093B001A6
:1023C0009093B101A093B201B093B3010F900F901D
:1023D0000F900F90DF91CF910C94AD0C0895E92FE1
:1023E000EE0FEE0FE80F8E2F877041E001C0440F13
:1023F0008A95EAF7E695E695E69585E0E89FF0018F
:102400001124E456FE4F30E020E070E05191DF01EE
:102410001197CB01022E02C0969587950A94E2F798
:10242000817081958527842385278C932F5F3F4F6B
:102430002530310559F70895E92FEE0FEE0FE80F1B
:102440009E2F9770E695E695E69585E0E89FF0016A
:102450001124E456FE4F50E040E080E0219130E04E
:10246000092E02C0369527950A94E2F7217033278A
:10247000042E01C0220F0A94EAF7822B4F5F5F4FB0
:102480004530510559F70895BF92CF92DF92EF92F0
:10249000FF920F931F93CF93DF938C01C090B001F5
:1024A000D090B101E090B201F090B3018091B401FD
:1024B0009091B501A091B601B091B701C82AD92A6F
:1024C000EA2AFB2ACFE1D0E0BC2ED701C6010C2EB0
:1024D00004C0B695A795979587950A94D2F780FD85
:1024E0000EC0219788F7B12C8B2DDF91CF911F91D2
:1024F0000F91FF90EF90DF90CF90BF900895B801BB
:102500008C2F0E94A004019761F3EECFCF93DF934D
:10251000D82FC92F0E9444126D2F7C2FDF91CF91AD
:102520000C94A0041F93CF93DF93162FD72F909175
:102530006301992339F0862F972FDF91CF911F9157
:102540000C948612882391F0862F972F0E944412B4
:10255000C82F682F812F9D2F0E94EF11612F7D2F93
:102560008C2FDF91CF911F910C94A004862F972F71
:102570000E941C12C82FF2CF8091B80185958595D5
:10258000859508958091B8018770089598E0899F96
:1025900090011124622B6093B8010C940711909163
:1025A000B801809589238093B801282F277061F4A2
:1025B000282F082E000C330B9217130629F085954F
:1025C000859585950C94291108959091B80197707F
:1025D00081E009F480E00895909112019923E1F0DF
:1025E00090910E0297FF18C0E82FE695E695E695C4
:1025F000EF3139F12091000130910101E20FF32F09
:10260000F11D877021E030E001C0220F8A95EAF7C2
:102610008181822B818308952091000130910101F5
:10262000F90132969FEF40E05191851751F09F3F9D
:1026300019F4511101C0942F4F5F4E31A9F79F3FFC
:1026400009F40895290F311D97FD3A95F901828308
:10265000089590911201992301F190910E0297FF34
:102660001CC0E82FE695E695E695EF3139F120910B
:10267000000130910101E20FF32FF11D877021E07D
:1026800030E0A90102C0440F551F8A95E2F7CA0144
:102690008095918189238183089520910001309153
:1026A0000101F9013296205E3F4F9191891303C0D9
:1026B000DF0111971C92E217F307B9F7089581E043
:1026C00090E0E0910001F0910101E80FF91F108204
:1026D000019680329105A9F708959091DC01982B1D
:1026E0009093DC010895982F90958091DC018923C7
:1026F0008093DC0108951092DC0108959091DB0134
:10270000982B9093DB010895982F90958091DB0191
:1027100089238093DB0108951092DB010895909145
:10272000DA01982B9093DA010895982F9095809173
:10273000DA0189238093DA0108951092DA0108956D
:102740008093B90108951092B90108952091000174
:1027500030910101F9013196205E3F4F80E0919167
:1027600091118F5FE217F307D1F70895E09100010F
:10277000F09101018091DC018083E0910001F091F2
:10278000010180819091DB01892B8083E091000120
:10279000F091010180819091DA01892B80839091E1
:1027A000B901992361F0E0910001F091010180816C
:1027B000892B80830E94A61381111092B901809108
:1027C0000001909101010C94E5076DEE7EEF90E021
:1027D00080E00E94622160E082E090E00E9450214F
:1027E00060E083E090E00E94502160E084E090E0AF
:1027F0000E94502160E085E090E00C94502190E030
:1028000080E00E944A219C0181E02D3E3E4F09F06C
:1028100080E0089582E090E00C944221682F82E0ED
:1028200090E00C94502183E090E00C944221682FBA
:1028300083E090E00C94502184E090E00C944221DD
:10284000682F84E090E00C94502180911402843031
:1028500039F11092DE0188E190E020E40FB6F8949F
:10286000A895809360000FBE2093600080E00E94D6
:10287000810483B7817F846083BF83B7816083BF16
:102880007894889583B78E7F83BF0FB6F894A89508
:1028900080916000886180936000109260000FBE9C
:1028A000089508950895CF930E9451140E94290716
:1028B0000E945214C0E08C2F0E94CD07811105C0E8
:1028C000CF5FC730C1F7CF91089581E0FCCF0E9460
:1028D000C10C0E94D9070C9481041F921FB61F924D
:1028E00011248F939F93AF93BF938091DE01811149
:1028F00013C080910A0290910B02A0910C02B0913A
:102900000D024196A11DB11D80930A0290930B0206
:10291000A0930C02B0930D02BF91AF919F918F9144
:102920001F901FBE1F90189582E084BD93E095BD57
:102930009AEF97BD80936E0008952FB7F894809119
:102940000A0290910B02A0910C02B0910D022FBFD0
:102950000895CF92DF92EF92FF929C014FB7F894C7
:1029600080910A0290910B02A0910C02B0910D028D
:102970004FBF6C017D01EE24FF24A90170E060E0EF
:10298000C416D506E606F70638F0821B930BFF90B7
:10299000EF90DF90CF9008950197F7CF1F921FB669
:1029A0001F9211248F939F93AF93BF9380910A023C
:1029B00090910B02A0910C02B0910D020196A11D05
:1029C000B11D80930A0290930B02A0930C02B09366
:1029D0000D02BF91AF919F918F911F901FBE1F90CD
:1029E00018950E94DD1CF8942FEF87EA91E621509C
:1029F00080409040E1F700C0000087E090EBDC01F0
:102A000080931D0290931E02A0931F02B093200298
:102A100088E19CE00FB6F894A895809360000FBE03
:102A200090936000FFCFCF92DF92EF92FF920F93CF
:102A30001F93CF93C0E0E82EF12C8C2F0E94CD077E
:102A400010E000E0C82ED12CC601002E02C09595E2
:102A500087950A94E2F780FF11C0602F7C2F80E0F9
:102A60000E948404E816F90649F481E0CF911F9191
:102A70000F91FF90EF90DF90CF9008950F5F1F4F61
:102A80000430110509F7CF5FC730B9F680E0EECF0B
:102A9000CF93C82F8CE20E941315882321F08C2F2E
:102AA000CF910C94131580E0CF910895CF93DF93CD
:102AB00000D000D0CDB7DEB70E94FF13811102C055
:102AC0000E94E51395E6998308C00E9429078FE3C9
:102AD0009CE90197F1F700C00000A981A150A983EA
:102AE000A111F3CF89E20E944815811110C18AE239
:102AF0000E94481581110E94E51385E00E94481547
:102B000081110E94F1140E940A148093DD0187E074
:102B10000E944815882371F08BE10E944815882394
:102B200009F4D1C09091DD01892F8D7F91FF8260E2
:102B30008093DD018091DD010E940E140E941C141F
:102B400090E090930F0280930E0280EE0E94481551
:102B5000882341F090910E02892F8E7F90FF816033
:102B600080930E0289E30E944815882341F09091DA
:102B70000E02892F8D7F91FF826080930E0282EE7C
:102B80000E944815882341F090910E02892F8B7F77
:102B900092FF846080930E0286EE0E94481588237F
:102BA00041F090910E02892F877F93FF8860809378
:102BB0000E0283EE0E944815882341F090910E0288
:102BC000892F8F7E94FF806180930E0285E30E949F
:102BD0004815882341F090910E02892F8F7D95FF33
:102BE000806280930E0281E30E944815882341F0A1
:102BF00090910E02892F8F7B96FF806480930E0246
:102C000081E10E944815882341F090910E02892F9E
:102C100097FB87F9805880930E0280910E020E94E4
:102C2000201487E20E94481589838EE10E9448158E
:102C3000882319F0B981B260B9838FE10E944815E9
:102C4000882319F029812460298380E20E94481595
:102C5000882319F039813860398381E20E94481550
:102C6000882319F049814061498382E20E94481516
:102C7000882319F059815062598383E20E944815D4
:102C8000882319F089818064898384E20E94481531
:102C90008823B1F199819068998389810E941714E2
:102CA0003981232F30E050E040E029833A834B8381
:102CB0005C83CA01B9010F900F900F900F90DF91C4
:102CC000CF910C9460108EE00E944815882339F053
:102CD0009091DD01892F8B7F92FF846029CF80E165
:102CE0000E9448159091DD01882329F0892F877F64
:102CF00093FF88601DCF892F8E7F90FF816018CF52
:102D0000A981A111CACF0E941314282FCBCF0F90F5
:102D10000F900F900F90DF91CF9108958091E10176
:102D200080FF12C06091050185E0689FB001112409
:102D3000759567957595679560387105A8F5611566
:102D40007105A1F1862F089581FF09C060910501E9
:102D500085E0689FB001112475956795EDCF60916E
:102D6000050182FD0AC08091E2018823D1F0909193
:102D7000040160910501891728F085E0689FB00182
:102D80001124DACF869FB001112485E0869F90013F
:102D9000879F300D1124692F70E0C9010E94112115
:102DA000CBCF65E070E0CECF8FE7089581E0089546
:102DB0008091E10180FF0CC06091030170E0759586
:102DC0006795759567956115710549F1862F089589
:102DD00081FF06C06091030170E075956795F3CFA0
:102DE0006091030182FD0BC09091E2019923A1F053
:102DF0006091020180910301961738F0682F70E00E
:102E00006038710500F38FE70895899FC001112490
:102E100070E00E941121F4CF61E070E0D7CF81E033
:102E20000895803F31F40E948E1681958093E501CC
:102E30000895813F19F40E948E16F8CF823F31F435
:102E40000E948E1681958093E4010895833F19F4C2
:102E50000E948E16F8CF893F29F40E94D8168093DD
:102E6000E60108958A3F21F40E94D8168195F7CF94
:102E70008B3F31F40E94D81681958093E701089525
:102E80008C3F19F40E94D816F8CF843F31F480911A
:102E9000E30181608093E3010895853F21F48091EF
:102EA000E3018260F7CF863F21F48091E3018460E3
:102EB000F1CF873F21F48091E3018860EBCF883F19
:102EC00021F48091E3018061E5CF8D3F31F4809161
:102ED000E10181608093E10108958E3F21F48091AA
:102EE000E1018260F7CF8F3FB9F78091E101846003
:102EF000F1CF9091E401803F41F48091E50187FD9D
:102F00001092E501992371F00895813F29F4809191
:102F1000E5011816ACF3F6CF823F81F497FFF2CFAC
:102F20001092E4018091E5019091E601892B909146
:102F3000E701892B49F71092E2010895833F19F4C4
:102F4000191674F3DFCF893F39F48091E601181622
:102F5000CCF61092E601D6CF8A3F29F48091E601A3
:102F600087FFD0CFF6CF8B3F39F48091E70187FF01
:102F7000C9CF1092E701C6CF8C3F29F48091E701B9
:102F80001816BCF3BFCF843F31F48091E3018E7FEC
:102F90008093E301B7CF853F21F48091E3018D7FDA
:102FA000F7CF863F21F48091E3018B7FF1CF873FFC
:102FB00021F48091E301877FEBCF883F21F480915A
:102FC000E3018F7EE5CF8D3F31F48091E1018E7F6B
:102FD0008093E10197CF8E3F21F48091E1018D7FB5
:102FE000F7CF8F3F09F08ECF8091E1018B7FF0CF3B
:102FF00083EE91E00E94F0070E949D149093E001FF
:103000008093DF0108951F93CF93DF9300D000D00A
:1030100000D0CDB7DEB78091DF019091E0010E9432
:10302000A914AC018091E2012091060130E08111E8
:1030300006C0209107019AE0299F900111244217B0
:10304000530788F02091E401A091E501A983109134
:10305000E601B091E701BE8321110FC09A2F912B99
:103060009B2B09F0B2C026960FB6F894DEBF0FBEB8
:10307000CDBFDF91CF911F9108958F3F19F08F5FE2
:103080008093E201121624F40E948E168093E401CC
:103090008091E40187FF05C00E948E168195809380
:1030A000E4012981121624F40E948E168093E50112
:1030B0008091E50187FF05C00E948E16819580935F
:1030C000E5018091E401882309F455C03091E501C0
:1030D0003D83332309F44FC0282F880F330B440B53
:1030E000550B29833A834B835C83CA01B9010E9443
:1030F000182023E333E343E35FE369837A838B831D
:103100009C8369817A818B819C810E947C20698368
:103110007A838B839C8369817A818B819C810E94D5
:10312000E01F6093E4018D81082E000C990BAA0B1F
:10313000BB0B89839A83AB83BC83BC01CD010E9406
:10314000182023E333E343E35FE369837A838B83CC
:103150009C8369817A818B819C810E947C20698318
:103160007A838B839C8369817A818B819C810E9485
:10317000E01F6093E501111624F40E94D816809395
:10318000E6018091E60187FF05C00E94D81681956F
:103190008093E6019E81191624F40E94D81680932C
:1031A000E7018091E70187FF05C00E94D81681954D
:1031B0008093E70126960FB6F894DEBF0FBECDBF11
:1031C000DF91CF911F910C94F8178F3F09F057CFE3
:1031D00068CF85E0E3EEF1E0DF011D928A95E9F723
:1031E0001092E2011092E101089580910802089581
:1031F000CF93DF9300D00F92CDB7DEB720911402AA
:10320000243019F523E029838A839B832093E900E6
:103210008FEF9091E800815095FD06C095ED9A954D
:10322000F1F700008111F5CF8091E80085FF0DC016
:1032300050E040E063E070E0CE0101960E94551B33
:103240008091E8008E778093E8000F900F900F90A8
:10325000DF91CF910895CF93DF9300D00F92CDB738
:10326000DEB79C0180911402843031F582E08983BD
:10327000205831093B832A8383E08093E9008FEF54
:103280009091E800815095FD06C095ED9A95F1F773
:1032900000008111F5CF8091E80085FF0DC050E05E
:1032A00040E063E070E0CE0101960E94551B8091E2
:1032B000E8008E778093E8000F900F900F90DF91D9
:1032C000CF910895209114022430F1F422E020934C
:1032D000E9002FEF3091E800215035FD06C035EDB3
:1032E0003A95F1F700002111F5CF2091E80025FF74
:1032F0000BC050E040E065E070E00E94551B8091FB
:10330000E8008E778093E8000895CF93DF93D82F5D
:10331000C92F809114028430F1F490911201992305
:10332000E9F090910E0297FF19C08093E9008FEFAA
:103330009091E800815095FD06C095E19A95F1F7CE
:1033400000008111F5CF8091E80050E040E060E29C
:1033500070E085FD1AC0DF91CF91089581E08093E0
:10336000E9008FEF9091E800815095FD06C095ED42
:103370009A95F1F700008111F5CF8091E80085FF63
:10338000EACF50E040E068E070E08D2F9C2F0E9473
:10339000551B8091E8008E778093E80080E2ED2F46
:1033A000FC2FA8EEB1E001900D928A95E1F7D3CF02
:1033B00080911302811109C00E94DD1C0E943F1DF3
:1033C0008091E20084608093E200089510921302DD
:1033D0000895089508950C94671442E061EC81E02B
:1033E0000E94591C42E061EC82E00E94591C42E0BC
:1033F00061EC83E00E94591C42E261EC84E00C9491
:10340000591C80911602893089F148F4823009F400
:1034100094C0833009F44FC0813041F008958A3060
:1034200009F47BC08B3009F461C0089580911502C6
:10343000813A09F03FC08091E800877F8093E800DF
:103440008091190290911A02892B61F460E288EE52
:1034500091E070E00E94A41B8091E8008B7780933C
:10346000E800089560E090E080E0F3CF80911502DD
:10347000813201F58091190290911A02009711F0A2
:103480000397C1F48091E800877F8093E8008091E2
:10349000E80082FF0BC08091F100809308028091C8
:1034A000E8008B778093E8000C948D1C80911402C7
:1034B0008111EDCF089580911502813AD9F780915D
:1034C000190290911A02892BA9F78091E800877F51
:1034D0008093E8008091E80080FFFCCF809112018A
:1034E0008093F1008091E8008E77DCCF8091150207
:1034F000813201F78091190290911A02892BD1F63D
:103500008091E800877F8093E8000E948D1C809165
:103510001702809312010C94C10C80911502813224
:1035200049F68091E800877F8093E8000E948D1C17
:103530008091180280930902089580911502813AC2
:1035400009F0B8CF8091E800877F8093E8008091F0
:10355000E80080FFFCCF80910902C2CF84B7877F4B
:1035600084BF0FB6F894A89580916000886180931D
:103570006000109260000FBE80E88093610010929E
:1035800061000E9428080E94DD1C0E943F1D80915E
:10359000E20084608093E20078940E94C51F0E943C
:1035A0002A0888E091E00E94D407809114028530B7
:1035B00019F00E943008F9CF0E9425148091120260
:1035C000882399F30E945314882379F30E943F1BA8
:1035D000ECCF9C01DA01892F992783309105C1F046
:1035E00068F48130910509F445C0029761F48DE6D5
:1035F00090E028E434E02D933C93089581329105C6
:10360000E1F0829739F190E080E030E020E0F3CF04
:10361000C9019927213059F08230910559F0E4E42D
:10362000F4E0892B81F7849190E09F01E4CFECE2F4
:10363000F4E0F9CFE8E1F4E0F6CF643020F7E62FCC
:10364000F0E0EE0FFF1FE65DFE4F2081318189E043
:1036500090E0D1CF6430B8F670E0FB01EE0FFF1FB1
:10366000EE5DFE4F20813181625E7E4FFB018081E5
:1036700090E0C1CF82E190E025EB34E0BCCF84E163
:1036800089BD86E189BD09B400FEFDCF8091D800D7
:103690008F7D8093D8008091E00082608093E0006D
:1036A0008091E00081FDFCCF0895AF92BF92CF9250
:1036B000DF92FF920F931F93CF93DF936C01EB0187
:1036C0008A010E94AC1CF82E811123C0011511053E
:1036D00039F0F80180819181C81BD90BC80ED91E21
:1036E000B12CA12C2097A9F08091E80085FD22C083
:1036F0008091E8008E778093E80001151105A1F014
:10370000F80180819181A80EB91EB182A08285E066
:10371000F82E8F2DDF91CF911F910F91FF90DF90A9
:10372000CF90BF90AF9008950E94AC1C8823D1F237
:10373000F82EEFCFF60181916F018093F100219770
:10374000FFEFAF1ABF0ACECFFC01CB0120911B02C5
:1037500030911C022617370790F0009729F420912A
:10376000E8002E772093E80040E0009751F44111E3
:1037700008C08091E80082FF31C080E00895C9014F
:10378000F3CF209114022223A9F12530A9F1209131
:10379000E80023FD2DC02091E80022FDEACF209112
:1037A000E80020FFE2CF2091F2003091F300009773
:1037B00019F02830310558F041E02830310509F082
:1037C00040E02091E8002E772093E800CECF419191
:1037D0004093F10001972F5F3F4FE9CF8091140292
:1037E000882341F0853041F08091E80083FFC1CF0C
:1037F00081E0089582E0089583E00895FC01CB0103
:1038000020911B0230911C022617370790F0009779
:1038100029F42091E8002E772093E80040E00097FB
:1038200051F4411108C08091E80082FF32C080E06D
:103830000895C901F3CF209114022223B1F125305C
:10384000B1F12091E80023FD2EC02091E80022FD77
:10385000EACF2091E80020FFE2CF2091F2003091E2
:10386000F300009719F02830310558F041E0283076
:10387000310509F040E02091E8002E772093E80020
:10388000CECF44914093F100319601972F5F3F4F87
:10389000E8CF80911402882341F0853041F0809177
:1038A000E80083FFC0CF81E0089582E0089583E0BF
:1038B0000895982F973028F08F708093E90081E069
:1038C00008959093E900242F762F50E0981731F057
:1038D0007091EC002091ED005091F00021FD02C0AC
:1038E0009F5FE8CF3091EB003E7F3093EB0030914B
:1038F000ED003D7F3093ED003091EB00316030936F
:10390000EB007093EC002093ED005093F0002091B9
:10391000EE0027FDE5CF80E008958091150287FF36
:1039200013C08091E80082FF06C08091E8008B7789
:103930008093E80004C0809114028111F2CF0895B1
:10394000809114028823D9F38091E80080FFF8CF9A
:103950008091E8008E77ECCF2091E4003091E50073
:1039600095E6A9012091EC00822F817020FF06C00E
:103970008091E80080FF06C080E008952091E80073
:1039800022FD1AC080911402882389F0853089F0C5
:103990008091EB0085FD0FC02091E4003091E5009F
:1039A00042175307F9F29150E1F684E0089582E05E
:1039B000089583E0089581E008950E944E1D0E94BD
:1039C000561DE0EEF0E0808181608083E8EDF0E05C
:1039D00080818F77808319BCA7EDB0E08C918E7FBA
:1039E0008C9380818F7E80831092130208950F93B1
:1039F0001F93CF93DF930E944E1D0E94561DC8ED6A
:103A0000D0E088818F7788838881806888838881E7
:103A10008F7D8883E7EDF0E080818068808319BC2A
:103A200010921402109210021092120210921102BF
:103A300000EE10E0F80180818B7F808388818160B7
:103A4000888342E060E080E00E94591CE1EEF0E0F3
:103A500080818E7F8083E2EEF0E0808181608083D0
:103A6000808188608083F80180818E7F8083888157
:103A700080618883DF91CF911F910F910895E8EDC8
:103A8000F0E080818F7E8083E7EDF0E080818160CF
:103A9000808381E0809313020C94F71CE8EDF0E042
:103AA00080818C7F80831092E20008951092DA006A
:103AB0001092E10008951F920F920FB60F921124F9
:103AC0000BB60F922F933F934F935F936F937F9318
:103AD0008F939F93AF93BF93EF93FF938091E100F8
:103AE00082FF0BC08091E20082FF07C08091E1005D
:103AF0008B7F8093E1000E94C41F8091DA0080FFD9
:103B000019C08091D80080FF15C08091DA008E7FA7
:103B10008093DA008091D90080FF96C084E189BD4E
:103B200086E189BD09B400FEFDCF81E080931402D7
:103B30000E94D8198091E10080FF19C08091E200B5
:103B400080FF15C08091E2008E7F8093E20080911B
:103B5000E20080618093E2008091D80080628093CF
:103B6000D80019BC85E0809314020E94EA19809164
:103B7000E10084FF29C08091E20084FF25C084E138
:103B800089BD86E189BD09B400FEFDCF8091D800D2
:103B90008F7D8093D8008091E1008F7E8093E1003B
:103BA0008091E2008F7E8093E2008091E20081604C
:103BB0008093E20080911002882309F44BC084E0D6
:103BC000809314020E94EB198091E10083FF29C0C9
:103BD0008091E20083FF25C08091E100877F809380
:103BE000E10082E080931402109210028091E100C3
:103BF0008E7F8093E1008091E2008E7F8093E200CF
:103C00008091E20080618093E20042E060E080E029
:103C10000E94591C8091F00088608093F0000E94FF
:103C2000E919FF91EF91BF91AF919F918F917F9192
:103C30006F915F914F913F912F910F900BBE0F901D
:103C40000FBE0F901F90189519BC109214020E947D
:103C5000E61970CF8091E30087FD02C081E0B0CF0C
:103C600083E0AECF1F920F920FB60F9211240BB6C6
:103C70000F922F933F934F935F936F937F938F9305
:103C80009F93AF93BF93CF93DF93EF93FF93D09125
:103C9000E900DF708091EC00C82FC17080FDC0E8A2
:103CA0001092E9008091F000877F8093F000789473
:103CB0000E947A1E1092E9008091F0008860809343
:103CC000F000CD2BCF70C093E900FF91EF91DF9111
:103CD000CF91BF91AF919F918F917F916F915F91A4
:103CE0004F913F912F910F900BBE0F900FBE0F90F1
:103CF0001F9018951F93CF93DF93CDB7DEB7AA9788
:103D00000FB6F894DEBF0FBECDBF85E192E0FC0197
:103D100001962091F100208322E08D319207B9F7BE
:103D20000E94011A8091E80083FF16C1809115025C
:103D3000909116029A3008F00FC1E92FF0E0E45696
:103D4000FE4D0C942521803881F0823809F004C1A1
:103D5000809119028F708093E9008091EB0085FBC0
:103D6000882780F91092E90006C080911102909195
:103D70001202911182609091E800977F9093E80081
:103D80008093F1001092F1008091E8008E77E0C0FE
:103D9000882309F4CEC0823009F0DEC0809117027A
:103DA0008111D1C0809119028F7009F4D5C0809320
:103DB000E9002091EB0020FFC6C0933031F48091E0
:103DC000EB0080628093EB00BEC09091EB009061AD
:103DD0009093EB0021E030E001C0220F8A95EAF7D2
:103DE0002093EA001092EA008091EB008860EACF0D
:103DF0008111B2C0109117021F778091E300807883
:103E0000812B8093E3008091E800877F8093E80016
:103E10000E948D1C8091E80080FFFCCF8091E30020
:103E200080688093E30082E0111183E080931402A4
:103E300093C08058823008F08FC080911702909113
:103E400018028C3D23E09207A1F583E08A838AE281
:103E500089834FB7F894DE01139620E03EE051E2EB
:103E6000E32FF0E050935700E49120FF03C0E29568
:103E7000EF703F5FEF708E2F90E0EA30C0F0C79692
:103E80008D939D932F5F243159F74FBF8091E800A8
:103E9000877F8093E8006AE270E0CE0101960E947D
:103EA000A41B8091E8008B778093E80055C0C096F2
:103EB000E7CFAE014F5F5F4F609119020E94E91A90
:103EC000BC01892B09F448C08091E800877F80936A
:103ED000E80089819A810E94FE1BE3CF8038E1F5DA
:103EE0008091E800877F8093E800809110028093A2
:103EF000F1004ACF811130C090911702923060F5E5
:103F00008091E800877F8093E800909310020E94E0
:103F10008D1C80911002882311F084E005C08091EF
:103F2000E30087FDFACF81E0809314020E94ED192F
:103F300013C080911702813079F481E0933009F049
:103F400080E0809312021092E9008091E800877F60
:103F50008093E8000E948D1C8091E80083FF0AC0D6
:103F60008091E800877F8093E8008091EB00806279
:103F70008093EB00AA960FB6F894DEBF0FBECDBFBC
:103F8000DF91CF911F9108950895CF9380911402EE
:103F90008823A1F0C091E900CF709091EC00892FA7
:103FA000817090FD80E8C82B1092E9008091E800B4
:103FB00083FD0E947A1ECF70C093E900CF910895CF
:103FC0000E94E71F6894B1110C94762008950E9416
:103FD0005B2088F09F5798F0B92F9927B751B0F020
:103FE000E1F0660F771F881F991F1AF0BA95C9F77D
:103FF00014C0B13091F00E947520B1E008950C9486
:104000007520672F782F8827B85F39F0B93FCCF338
:10401000869577956795B395D9F73EF490958095F9
:10402000709561957F4F8F4F9F4F0895E89409C019
:1040300097FB3EF490958095709561957F4F8F4FDB
:104040009F4F9923A9F0F92F96E9BB279395F695F1
:10405000879577956795B795F111F8CFFAF4BB0F6F
:1040600011F460FF1BC06F5F7F4F8F4F9F4F16C0D3
:10407000882311F096E911C0772321F09EE8872F5D
:10408000762F05C0662371F096E8862F70E060E019
:104090002AF09A95660F771F881FDAF7880F969592
:1040A000879597F9089557FD9058440F551F59F07B
:1040B0005F3F71F04795880F97FB991F61F09F3F15
:1040C00079F087950895121613061406551FF2CF3E
:1040D0004695F1DF08C0161617061806991FF1CF8E
:1040E00086957105610508940895E894BB276627B5
:1040F0007727CB0197F908950E948F200C94002117
:104100000E94F22038F00E94F92020F0952311F04F
:104110000C94E9200C94EF2011240C9476200E943A
:10412000532070F3959FC1F3950F50E0551F629F88
:10413000F001729FBB27F00DB11D639FAA27F00D00
:10414000B11DAA1F649F6627B00DA11D661F829F27
:104150002227B00DA11D621F739FB00DA11D621F0C
:10416000839FA00D611D221F749F3327A00D611D29
:10417000231F849F600D211D822F762F6A2F11240B
:104180009F5750409AF0F1F088234AF0EE0FFF1F3E
:10419000BB1F661F771F881F91505040A9F79E3F95
:1041A000510580F00C94E9200C9476205F3FE4F3F5
:1041B000983ED4F3869577956795B795F795E795EB
:1041C0009F5FC1F7FE2B880F911D9695879597F9F4
:1041D000089597F99F6780E870E060E008959FEF89
:1041E00080EC089500240A9416161706180609068E
:1041F000089500240A94121613061406050608955D
:10420000092E0394000C11F4882352F0BB0F40F4E4
:10421000BF2B11F460FF04C06F5F7F4F8F4F9F4F24
:10422000089597FB072E16F4009407D077FD09D068
:104230000E942E2107FC05D03EF4909581959F4F5A
:104240000895709561957F4F0895EE0FFF1F00242C
:10425000001C0BBE0790F691E02D0994AA1BBB1B16
:1042600051E107C0AA1FBB1FA617B70710F0A61B76
:10427000B70B881F991F5A95A9F780959095BC0197
:10428000CD010895F999FECF92BD81BDF89A992785
:1042900080B50895A8E1B0E042E050E00C946A21B6
:1042A000262FF999FECF92BD81BDF89A019700B4EF
:1042B000021639F01FBA20BD0FB6F894FA9AF99A8F
:1042C0000FBE08950196272F0E9451210C94502172
:1042D000DC01CB01FC01F999FECF06C0F2BDE1BDC6
:1042E000F89A319600B40D9241505040B8F70895B5
:1042F000F894FFCFEC03F803FC0300040404080463
:104300000C041004140418041C04200424042804BD
:104310002C043004340438046C0A6C0AC40AC40A3D
:10432000080B240B9C0A9C0A2F0B9C0AF70BF70B1B
:10433000620C9C0A9C0A6B0CA31EC81EAC1FC81EF4
:0C434000AC1FF81E191FAC1F6E1F7A1F67
:10434C00BA012808140A321EF518851962192B199E
:10435C00F818016061626330313233343536404DC8
:10436C003639830536050005C7045A0473048C04DA
:02437C00A50496
:00000001FF
